{
  "contractName": "RBACMultiSigWallet",
  "abi": [
    {
      "constant": true,
      "inputs": [
        {
          "name": "addr",
          "type": "address"
        },
        {
          "name": "roleName",
          "type": "string"
        }
      ],
      "name": "checkRole",
      "outputs": [],
      "payable": false,
      "stateMutability": "view",
      "type": "function"
    },
    {
      "constant": true,
      "inputs": [
        {
          "name": "addr",
          "type": "address"
        },
        {
          "name": "roleName",
          "type": "string"
        }
      ],
      "name": "hasRole",
      "outputs": [
        {
          "name": "",
          "type": "bool"
        }
      ],
      "payable": false,
      "stateMutability": "view",
      "type": "function"
    },
    {
      "constant": false,
      "inputs": [
        {
          "name": "addr",
          "type": "address"
        },
        {
          "name": "roleName",
          "type": "string"
        }
      ],
      "name": "adminRemoveRole",
      "outputs": [],
      "payable": false,
      "stateMutability": "nonpayable",
      "type": "function"
    },
    {
      "constant": false,
      "inputs": [
        {
          "name": "addr",
          "type": "address"
        },
        {
          "name": "roleName",
          "type": "string"
        }
      ],
      "name": "adminAddRole",
      "outputs": [],
      "payable": false,
      "stateMutability": "nonpayable",
      "type": "function"
    },
    {
      "constant": true,
      "inputs": [],
      "name": "ROLE_ADMIN",
      "outputs": [
        {
          "name": "",
          "type": "string"
        }
      ],
      "payable": false,
      "stateMutability": "view",
      "type": "function"
    },
    {
      "inputs": [
        {
          "name": "_advisors",
          "type": "address[]"
        }
      ],
      "payable": false,
      "stateMutability": "nonpayable",
      "type": "constructor"
    },
    {
      "anonymous": false,
      "inputs": [
        {
          "indexed": false,
          "name": "addr",
          "type": "address"
        },
        {
          "indexed": false,
          "name": "roleName",
          "type": "string"
        }
      ],
      "name": "RoleAdded",
      "type": "event"
    },
    {
      "anonymous": false,
      "inputs": [
        {
          "indexed": false,
          "name": "addr",
          "type": "address"
        },
        {
          "indexed": false,
          "name": "roleName",
          "type": "string"
        }
      ],
      "name": "RoleRemoved",
      "type": "event"
    },
    {
      "constant": true,
      "inputs": [],
      "name": "onlyAdminsCanDoThis",
      "outputs": [],
      "payable": false,
      "stateMutability": "view",
      "type": "function"
    },
    {
      "constant": true,
      "inputs": [],
      "name": "onlyAdvisorsCanDoThis",
      "outputs": [],
      "payable": false,
      "stateMutability": "view",
      "type": "function"
    },
    {
      "constant": true,
      "inputs": [],
      "name": "eitherAdminOrAdvisorCanDoThis",
      "outputs": [],
      "payable": false,
      "stateMutability": "view",
      "type": "function"
    },
    {
      "constant": true,
      "inputs": [],
      "name": "nobodyCanDoThis",
      "outputs": [],
      "payable": false,
      "stateMutability": "view",
      "type": "function"
    },
    {
      "constant": false,
      "inputs": [
        {
          "name": "_addr",
          "type": "address"
        }
      ],
      "name": "removeAdvisor",
      "outputs": [],
      "payable": false,
      "stateMutability": "nonpayable",
      "type": "function"
    }
  ],
  "bytecode": "0x608060405234801561001057600080fd5b50604051610f27380380610f27833981018060405281019080805182019291905050506000610083336040805190810160405280600581526020017f61646d696e000000000000000000000000000000000000000000000000000000815250610158640100000000026401000000009004565b6100d1336040805190810160405280600781526020017f61647669736f7200000000000000000000000000000000000000000000000000815250610158640100000000026401000000009004565b600090505b81518110156101515761014482828151811015156100f057fe5b906020019060200201516040805190810160405280600781526020017f61647669736f7200000000000000000000000000000000000000000000000000815250610158640100000000026401000000009004565b80806001019150506100d6565b5050610314565b6101e2826000836040518082805190602001908083835b602083101515610194578051825260208201915060208101905060208303925061016f565b6001836020036101000a03801982511681845116808217855250505050505090500191505090815260200160405180910390206102b664010000000002610b7a179091906401000000009004565b7fbfec83d64eaa953f2708271a023ab9ee82057f8f3578d548c1a4ba0b5b7004898282604051808373ffffffffffffffffffffffffffffffffffffffff1673ffffffffffffffffffffffffffffffffffffffff16815260200180602001828103825283818151815260200191508051906020019080838360005b8381101561027757808201518184015260208101905061025c565b50505050905090810190601f1680156102a45780820380516001836020036101000a031916815260200191505b50935050505060405180910390a15050565b60018260000160008373ffffffffffffffffffffffffffffffffffffffff1673ffffffffffffffffffffffffffffffffffffffff16815260200190815260200160002060006101000a81548160ff0219169083151502179055505050565b610c04806103236000396000f3006080604052600436106100a4576000357c0100000000000000000000000000000000000000000000000000000000900463ffffffff1680630988ca8c146100a95780630eeccb841461013257806316aabcbd14610175578063217fe6c61461018c578063420d0ba41461022d5780634fd3d1251461024457806363a5bc711461025b57806388cee87e14610272578063b25fa92c146102fb578063d391014b14610384575b600080fd5b3480156100b557600080fd5b50610130600480360381019080803573ffffffffffffffffffffffffffffffffffffffff169060200190929190803590602001908201803590602001908080601f0160208091040260200160405190810160405280939291908181526020018383808284378201915050505050509192919290505050610414565b005b34801561013e57600080fd5b50610173600480360381019080803573ffffffffffffffffffffffffffffffffffffffff169060200190929190505050610495565b005b34801561018157600080fd5b5061018a610555565b005b34801561019857600080fd5b50610213600480360381019080803573ffffffffffffffffffffffffffffffffffffffff169060200190929190803590602001908201803590602001908080601f0160208091040260200160405190810160405280939291908181526020018383808284378201915050505050509192919290505050610598565b604051808215151515815260200191505060405180910390f35b34801561023957600080fd5b5061024261061f565b005b34801561025057600080fd5b50610259610662565b005b34801561026757600080fd5b506102706106a3565b005b34801561027e57600080fd5b506102f9600480360381019080803573ffffffffffffffffffffffffffffffffffffffff169060200190929190803590602001908201803590602001908080601f0160208091040260200160405190810160405280939291908181526020018383808284378201915050505050509192919290505050610735565b005b34801561030757600080fd5b50610382600480360381019080803573ffffffffffffffffffffffffffffffffffffffff169060200190929190803590602001908201803590602001908080601f0160208091040260200160405190810160405280939291908181526020018383808284378201915050505050509192919290505050610782565b005b34801561039057600080fd5b506103996107cf565b6040518080602001828103825283818151815260200191508051906020019080838360005b838110156103d95780820151818401526020810190506103be565b50505050905090810190601f1680156104065780820380516001836020036101000a031916815260200191505b509250505060405180910390f35b610491826000836040518082805190602001908083835b602083101515610450578051825260208201915060208101905060208303925061042b565b6001836020036101000a038019825116818451168082178552505050505050905001915050908152602001604051809103902061080890919063ffffffff16565b5050565b6104d4336040805190810160405280600581526020017f61646d696e000000000000000000000000000000000000000000000000000000815250610414565b610513816040805190810160405280600781526020017f61647669736f7200000000000000000000000000000000000000000000000000815250610414565b610552816040805190810160405280600781526020017f61647669736f7200000000000000000000000000000000000000000000000000815250610821565b50565b6040805190810160405280600781526020017f61647669736f72000000000000000000000000000000000000000000000000008152506105953382610414565b50565b6000610617836000846040518082805190602001908083835b6020831015156105d657805182526020820191506020810190506020830392506105b1565b6001836020036101000a038019825116818451168082178552505050505050905001915050908152602001604051809103902061097290919063ffffffff16565b905092915050565b6040805190810160405280600781526020017f756e6b6e6f776e0000000000000000000000000000000000000000000000000081525061065f3382610414565b50565b6106a1336040805190810160405280600581526020017f61646d696e000000000000000000000000000000000000000000000000000000815250610414565b565b6106e2336040805190810160405280600581526020017f61646d696e000000000000000000000000000000000000000000000000000000815250610598565b806107285750610727336040805190810160405280600781526020017f61647669736f7200000000000000000000000000000000000000000000000000815250610598565b5b151561073357600080fd5b565b610774336040805190810160405280600581526020017f61646d696e000000000000000000000000000000000000000000000000000000815250610414565b61077e8282610821565b5050565b6107c1336040805190810160405280600581526020017f61646d696e000000000000000000000000000000000000000000000000000000815250610414565b6107cb82826109cb565b5050565b6040805190810160405280600581526020017f61646d696e00000000000000000000000000000000000000000000000000000081525081565b6108128282610972565b151561081d57600080fd5b5050565b61089e826000836040518082805190602001908083835b60208310151561085d5780518252602082019150602081019050602083039250610838565b6001836020036101000a0380198251168184511680821785525050505050509050019150509081526020016040518091039020610b1c90919063ffffffff16565b7fd211483f91fc6eff862467f8de606587a30c8fc9981056f051b897a418df803a8282604051808373ffffffffffffffffffffffffffffffffffffffff1673ffffffffffffffffffffffffffffffffffffffff16815260200180602001828103825283818151815260200191508051906020019080838360005b83811015610933578082015181840152602081019050610918565b50505050905090810190601f1680156109605780820380516001836020036101000a031916815260200191505b50935050505060405180910390a15050565b60008260000160008373ffffffffffffffffffffffffffffffffffffffff1673ffffffffffffffffffffffffffffffffffffffff16815260200190815260200160002060009054906101000a900460ff16905092915050565b610a48826000836040518082805190602001908083835b602083101515610a0757805182526020820191506020810190506020830392506109e2565b6001836020036101000a0380198251168184511680821785525050505050509050019150509081526020016040518091039020610b7a90919063ffffffff16565b7fbfec83d64eaa953f2708271a023ab9ee82057f8f3578d548c1a4ba0b5b7004898282604051808373ffffffffffffffffffffffffffffffffffffffff1673ffffffffffffffffffffffffffffffffffffffff16815260200180602001828103825283818151815260200191508051906020019080838360005b83811015610add578082015181840152602081019050610ac2565b50505050905090810190601f168015610b0a5780820380516001836020036101000a031916815260200191505b50935050505060405180910390a15050565b60008260000160008373ffffffffffffffffffffffffffffffffffffffff1673ffffffffffffffffffffffffffffffffffffffff16815260200190815260200160002060006101000a81548160ff0219169083151502179055505050565b60018260000160008373ffffffffffffffffffffffffffffffffffffffff1673ffffffffffffffffffffffffffffffffffffffff16815260200190815260200160002060006101000a81548160ff02191690831515021790555050505600a165627a7a7230582046eca9ab06bf79cf3343537d51211c0d41be9b6425924cdaa854b2419b324a260029",
  "source": "pragma solidity ^0.4.24;\n\nimport './RBACWithAdmin.sol';\n\n\ncontract RBACMultiSigWallet is RBACWithAdmin {\n\n  string constant ROLE_ADVISOR = \"advisor\";\n\n  modifier onlyAdminOrAdvisor()\n  {\n    require(\n      hasRole(msg.sender, ROLE_ADMIN) ||\n      hasRole(msg.sender, ROLE_ADVISOR)\n    );\n    _;\n  }\n\n  constructor(address[] _advisors)\n    public\n  {\n    addRole(msg.sender, ROLE_ADVISOR);\n\n    for (uint256 i = 0; i < _advisors.length; i++) {\n      addRole(_advisors[i], ROLE_ADVISOR);\n    }\n  }\n\n  function onlyAdminsCanDoThis()\n    onlyAdmin\n    view\n    external\n  {\n  }\n\n  function onlyAdvisorsCanDoThis()\n    onlyRole(ROLE_ADVISOR)\n    view\n    external\n  {\n  }\n\n  function eitherAdminOrAdvisorCanDoThis()\n    onlyAdminOrAdvisor\n    view\n    external\n  {\n  }\n\n  function nobodyCanDoThis()\n    onlyRole(\"unknown\")\n    view\n    external\n  {\n  }\n\n  // admins can remove advisor's role\n  function removeAdvisor(address _addr)\n    onlyAdmin\n    public\n  {\n    // revert if the user isn't an advisor\n    //  (perhaps you want to soft-fail here instead?)\n    checkRole(_addr, ROLE_ADVISOR);\n\n    // remove the advisor's role\n    removeRole(_addr, ROLE_ADVISOR);\n  }\n}\n",
  "sourcePath": "/Users/Doug/Desktop/multisig-wallet-instance/contracts/RBACMultiSigWallet.sol",
  "compiler": {
    "name": "solc",
    "version": "0.4.24+commit.e67f0147.Emscripten.clang"
  },
  "schemaVersion": "2.0.0",
  "updatedAt": "2018-07-10T15:58:00.782Z"
}